{
  "_format": "hh-sol-artifact-1",
  "contractName": "gasChallenge",
  "sourceName": "contracts/gasChallenge.sol",
  "abi": [
    {
      "inputs": [],
      "name": "getSumOfArray",
      "outputs": [
        {
          "internalType": "uint256",
          "name": "",
          "type": "uint256"
        }
      ],
      "stateMutability": "view",
      "type": "function"
    },
    {
      "inputs": [],
      "name": "notOptimizedFunction",
      "outputs": [],
      "stateMutability": "nonpayable",
      "type": "function"
    },
    {
      "inputs": [],
      "name": "optimizedFunction",
      "outputs": [],
      "stateMutability": "nonpayable",
      "type": "function"
    }
  ],
  "bytecode": "0x6080604052604051806101400160405280600160ff168152602001600260ff168152602001600360ff168152602001600460ff168152602001600560ff168152602001600660ff168152602001600760ff168152602001600860ff168152602001600960ff168152602001600a60ff16815250600090600a610082929190610095565b5034801561008f57600080fd5b50610104565b8280548282559060005260206000209081019282156100d6579160200282015b828111156100d5578251829060ff169055916020019190600101906100b5565b5b5090506100e391906100e7565b5090565b5b808211156101005760008160009055506001016100e8565b5090565b6102b0806101136000396000f3fe608060405234801561001057600080fd5b50600436106100415760003560e01c806368b5f223146100465780637ce418941461005057806380d2c8031461005a575b600080fd5b61004e610078565b005b6100586100c1565b005b6100626100d0565b60405161006f9190610185565b60405180910390f35b60005b6000805490508110156100be57600080828154811061009d5761009c6101a0565b5b906000526020600020018190555080806100b6906101fe565b91505061007b565b50565b6000806100ce919061012e565b565b6000806000905060005b60008054905081101561012657600081815481106100fb576100fa6101a0565b5b9060005260206000200154826101119190610246565b9150808061011e906101fe565b9150506100da565b508091505090565b508054600082559060005260206000209081019061014c919061014f565b50565b5b80821115610168576000816000905550600101610150565b5090565b6000819050919050565b61017f8161016c565b82525050565b600060208201905061019a6000830184610176565b92915050565b7f4e487b7100000000000000000000000000000000000000000000000000000000600052603260045260246000fd5b7f4e487b7100000000000000000000000000000000000000000000000000000000600052601160045260246000fd5b60006102098261016c565b91507fffffffffffffffffffffffffffffffffffffffffffffffffffffffffffffffff820361023b5761023a6101cf565b5b600182019050919050565b60006102518261016c565b915061025c8361016c565b9250828201905080821115610274576102736101cf565b5b9291505056fea2646970667358221220cd2380e1b3f4889654895bfc15ed4ba4c74f0a391f63aa531f991db3af14052f64736f6c63430008120033",
  "linkReferences": {},
  "deployedLinkReferences": {}
}